{
    "contractName": "Election",
    "abi": [
        {
            "constant": true,
            "inputs": [],
            "name": "candidatesCount",
            "outputs": [
                {
                    "name": "",
                    "type": "uint256"
                }
            ],
            "payable": false,
            "stateMutability": "view",
            "type": "function"
        },
        {
            "constant": true,
            "inputs": [
                {
                    "name": "",
                    "type": "uint256"
                }
            ],
            "name": "candidates",
            "outputs": [
                {
                    "name": "id",
                    "type": "uint256"
                },
                {
                    "name": "name",
                    "type": "string"
                },
                {
                    "name": "voteCount",
                    "type": "uint256"
                }
            ],
            "payable": false,
            "stateMutability": "view",
            "type": "function"
        },
        {
            "constant": false,
            "inputs": [],
            "name": "election",
            "outputs": [],
            "payable": false,
            "stateMutability": "nonpayable",
            "type": "function"
        }
    ],
    "bytecode": "60606040526000600155341561001457600080fd5b610307806100236000396000f3006060604052600436106100565763ffffffff7c01000000000000000000000000000000000000000000000000000000006000350416632d35a8a2811461005b5780633477ee2e146100805780634b1d3ede1461012d575b600080fd5b341561006657600080fd5b61006e610142565b60405190815260200160405180910390f35b341561008b57600080fd5b610096600435610148565b604051838152604081018290526060602082018181528454600260001961010060018416150201909116049183018290529060808301908590801561011c5780601f106100f15761010080835404028352916020019161011c565b820191906000526020600020905b8154815290600101906020018083116100ff57829003601f168201915b505094505050505060405180910390f35b341561013857600080fd5b610140610166565b005b60015481565b60006020819052908152604090208054600282015490916001019083565b6101a260408051908101604052601081527f53616e64726120416e6e2053616a616e0000000000000000000000000000000060208201526101e0565b6101de60408051908101604052600f81527f5564617961205368616e6b6572204d000000000000000000000000000000000060208201526101e0565b565b600180548101905560606040519081016040908152600154808352602080840185905260008385018190529182528190522081518155602082015181600101908051610230929160200190610240565b5060408201516002909101555050565b828054600181600116156101000203166002900490600052602060002090601f016020900481019282601f1061028157805160ff19168380011785556102ae565b828001600101855582156102ae579182015b828111156102ae578251825591602001919060010190610293565b506102ba9291506102be565b5090565b6102d891905b808211156102ba57600081556001016102c4565b905600a165627a7a72305820f8d1b0180aa3b75d1ffebf6e7c93875825ea6be716f8b2e16501e88135d1d7cd0029",
    "sourcePath": "/home/project/blockchain/pet-shop-box/contracts/Election.sol",
    "compiler": {
        "name": "solc",
        "version": "0.4.20+commit.3155dd80"
    },
    "functionHashes": {
        "candidates(uint256)": "3477ee2e",
        "candidatesCount()": "2d35a8a2",
        "election()": "4b1d3ede"
    },
    "gasEstimates": {
        "creation": {
            "codeDepositCost": "155000",
            "executionCost": "5203",
            "totalCost": "160203"
        },
        "external": {
            "candidates(uint256)": "infinite",
            "candidatesCount()": "373",
            "election()": "infinite"
        },
        "internal": {
            "addCandidate(string memory)": "infinite"
        }
    }
}